{
  "contractName": "PayrollFinal",
  "abi": [
    {
      "constant": false,
      "inputs": [],
      "name": "Payroll",
      "outputs": [],
      "payable": false,
      "stateMutability": "nonpayable",
      "type": "function"
    },
    {
      "constant": false,
      "inputs": [
        {
          "name": "employeeId",
          "type": "address"
        },
        {
          "name": "salary",
          "type": "uint256"
        }
      ],
      "name": "addEmployee",
      "outputs": [],
      "payable": false,
      "stateMutability": "nonpayable",
      "type": "function"
    },
    {
      "constant": false,
      "inputs": [
        {
          "name": "employeeId",
          "type": "address"
        }
      ],
      "name": "removeEmployee",
      "outputs": [],
      "payable": false,
      "stateMutability": "nonpayable",
      "type": "function"
    },
    {
      "constant": false,
      "inputs": [
        {
          "name": "employeeId",
          "type": "address"
        },
        {
          "name": "salary",
          "type": "uint256"
        }
      ],
      "name": "updateEmployee",
      "outputs": [],
      "payable": false,
      "stateMutability": "nonpayable",
      "type": "function"
    },
    {
      "constant": false,
      "inputs": [],
      "name": "addFund",
      "outputs": [
        {
          "name": "",
          "type": "uint256"
        }
      ],
      "payable": true,
      "stateMutability": "payable",
      "type": "function"
    },
    {
      "constant": false,
      "inputs": [],
      "name": "calculateRunway",
      "outputs": [
        {
          "name": "",
          "type": "uint256"
        }
      ],
      "payable": false,
      "stateMutability": "nonpayable",
      "type": "function"
    },
    {
      "constant": false,
      "inputs": [],
      "name": "hasEnoughFund",
      "outputs": [
        {
          "name": "",
          "type": "bool"
        }
      ],
      "payable": false,
      "stateMutability": "nonpayable",
      "type": "function"
    },
    {
      "constant": false,
      "inputs": [],
      "name": "getPaid",
      "outputs": [],
      "payable": false,
      "stateMutability": "nonpayable",
      "type": "function"
    }
  ],
  "bytecode": "0x60806040526000805534801561001457600080fd5b50610b59806100246000396000f30060806040526004361061008e576000357c0100000000000000000000000000000000000000000000000000000000900463ffffffff16806323fed09e146100935780634ec19512146100c25780635e91d8ec146100ed578063a2f09dfa1461013a578063cf41d6f814610158578063d108177a1461016f578063e7fd9a13146101b2578063f8482ca5146101ff575b600080fd5b34801561009f57600080fd5b506100a8610216565b604051808215151515815260200191505060405180910390f35b3480156100ce57600080fd5b506100d7610227565b6040518082815260200191505060405180910390f35b3480156100f957600080fd5b50610138600480360381019080803573ffffffffffffffffffffffffffffffffffffffff16906020019092919080359060200190929190505050610252565b005b6101426104f6565b6040518082815260200191505060405180910390f35b34801561016457600080fd5b5061016d610515565b005b34801561017b57600080fd5b506101b0600480360381019080803573ffffffffffffffffffffffffffffffffffffffff16906020019092919050505061066f565b005b3480156101be57600080fd5b506101fd600480360381019080803573ffffffffffffffffffffffffffffffffffffffff169060200190929190803590602001909291905050506108a2565b005b34801561020b57600080fd5b50610214610a7e565b005b600080610221610227565b11905090565b600080543073ffffffffffffffffffffffffffffffffffffffff163181151561024c57fe5b04905090565b6000600160009054906101000a900473ffffffffffffffffffffffffffffffffffffffff1673ffffffffffffffffffffffffffffffffffffffff163373ffffffffffffffffffffffffffffffffffffffff161415156102b057600080fd5b600260008473ffffffffffffffffffffffffffffffffffffffff1673ffffffffffffffffffffffffffffffffffffffff168152602001908152602001600020905060008160000160009054906101000a900473ffffffffffffffffffffffffffffffffffffffff1673ffffffffffffffffffffffffffffffffffffffff161415151561033857fe5b6103b781606060405190810160405290816000820160009054906101000a900473ffffffffffffffffffffffffffffffffffffffff1673ffffffffffffffffffffffffffffffffffffffff1673ffffffffffffffffffffffffffffffffffffffff16815260200160018201548152602001600282015481525050610ac1565b600260008473ffffffffffffffffffffffffffffffffffffffff1673ffffffffffffffffffffffffffffffffffffffff168152602001908152602001600020600101546000808282540392505081905550670de0b6b3a76400008202600260008573ffffffffffffffffffffffffffffffffffffffff1673ffffffffffffffffffffffffffffffffffffffff16815260200190815260200160002060010181905550600260008473ffffffffffffffffffffffffffffffffffffffff1673ffffffffffffffffffffffffffffffffffffffff16815260200190815260200160002060010154600080828254019250508190555042600260008573ffffffffffffffffffffffffffffffffffffffff1673ffffffffffffffffffffffffffffffffffffffff16815260200190815260200160002060020181905550505050565b60003073ffffffffffffffffffffffffffffffffffffffff1631905090565b600080600260003373ffffffffffffffffffffffffffffffffffffffff1673ffffffffffffffffffffffffffffffffffffffff168152602001908152602001600020915060008260000160009054906101000a900473ffffffffffffffffffffffffffffffffffffffff1673ffffffffffffffffffffffffffffffffffffffff16141515156105a057fe5b600a826002015401905042811015156105b557fe5b80600260003373ffffffffffffffffffffffffffffffffffffffff1673ffffffffffffffffffffffffffffffffffffffff168152602001908152602001600020600201819055508160000160009054906101000a900473ffffffffffffffffffffffffffffffffffffffff1673ffffffffffffffffffffffffffffffffffffffff166108fc83600101549081150290604051600060405180830381858888f1935050505015801561066a573d6000803e3d6000fd5b505050565b6000600160009054906101000a900473ffffffffffffffffffffffffffffffffffffffff1673ffffffffffffffffffffffffffffffffffffffff163373ffffffffffffffffffffffffffffffffffffffff161415156106cd57600080fd5b600260008373ffffffffffffffffffffffffffffffffffffffff1673ffffffffffffffffffffffffffffffffffffffff168152602001908152602001600020905060008160000160009054906101000a900473ffffffffffffffffffffffffffffffffffffffff1673ffffffffffffffffffffffffffffffffffffffff161415151561075557fe5b6107d481606060405190810160405290816000820160009054906101000a900473ffffffffffffffffffffffffffffffffffffffff1673ffffffffffffffffffffffffffffffffffffffff1673ffffffffffffffffffffffffffffffffffffffff16815260200160018201548152602001600282015481525050610ac1565b600260008373ffffffffffffffffffffffffffffffffffffffff1673ffffffffffffffffffffffffffffffffffffffff168152602001908152602001600020600101546000808282540392505081905550600260008373ffffffffffffffffffffffffffffffffffffffff1673ffffffffffffffffffffffffffffffffffffffff168152602001908152602001600020600080820160006101000a81549073ffffffffffffffffffffffffffffffffffffffff02191690556001820160009055600282016000905550505050565b6000600160009054906101000a900473ffffffffffffffffffffffffffffffffffffffff1673ffffffffffffffffffffffffffffffffffffffff163373ffffffffffffffffffffffffffffffffffffffff1614151561090057600080fd5b600260008473ffffffffffffffffffffffffffffffffffffffff1673ffffffffffffffffffffffffffffffffffffffff168152602001908152602001600020905060008160000160009054906101000a900473ffffffffffffffffffffffffffffffffffffffff1673ffffffffffffffffffffffffffffffffffffffff1614151561098757fe5b670de0b6b3a7640000820260008082825401925050819055506060604051908101604052808473ffffffffffffffffffffffffffffffffffffffff168152602001670de0b6b3a76400008402815260200142815250600260008573ffffffffffffffffffffffffffffffffffffffff1673ffffffffffffffffffffffffffffffffffffffff16815260200190815260200160002060008201518160000160006101000a81548173ffffffffffffffffffffffffffffffffffffffff021916908373ffffffffffffffffffffffffffffffffffffffff1602179055506020820151816001015560408201518160020155905050505050565b33600160006101000a81548173ffffffffffffffffffffffffffffffffffffffff021916908373ffffffffffffffffffffffffffffffffffffffff160217905550565b6000600a82604001514203836020015102811515610adb57fe5b049050816000015173ffffffffffffffffffffffffffffffffffffffff166108fc829081150290604051600060405180830381858888f19350505050158015610b28573d6000803e3d6000fd5b5050505600a165627a7a72305820d20b6f74e907799b7257b6f944b2da2f859ed41e195356206d6cb7ba636f59750029",
  "source": "pragma solidity ^0.4.14;\r\n\r\ncontract PayrollFinal{\r\n    struct Employee{\r\n        address id;\r\n        uint salary;\r\n        uint lastPayday;\r\n    }\r\n\r\n\r\n    uint constant payDuration = 10 seconds;\r\n\r\n    uint totalSalary = 0;\r\n    address owner;\r\n    mapping(address => Employee) employees;\r\n    \r\n    function Payroll(){\r\n        owner =msg.sender;\r\n    }\r\n    \r\n    function _partialPaid(Employee employee) private{\r\n        uint payment = employee.salary*(now-employee.lastPayday)/payDuration;\r\n        employee.id.transfer(payment);\r\n    }\r\n    \r\n    \r\n    function addEmployee(address employeeId, uint salary){\r\n        require(msg.sender == owner);\r\n        var employee = employees[employeeId];\r\n        assert(employee.id == 0x0);\r\n        \r\n        totalSalary += salary * 1 ether;\r\n        employees[employeeId] = Employee(employeeId, salary * 1 ether, now);\r\n    }\r\n    \r\n    function removeEmployee(address employeeId){\r\n        require(msg.sender == owner);\r\n        var employee = employees[employeeId];\r\n        assert(employee.id != 0x0);\r\n        \r\n        _partialPaid(employee);\r\n        totalSalary -= employees[employeeId].salary;\r\n        delete employees[employeeId];\r\n       \r\n    }\r\n    \r\n    function updateEmployee(address employeeId, uint salary){\r\n        require(msg.sender == owner);\r\n        var employee = employees[employeeId];\r\n        assert(employee.id != 0x0);\r\n        \r\n        _partialPaid(employee);\r\n        totalSalary -= employees[employeeId].salary;\r\n        employees[employeeId].salary = salary * 1 ether;\r\n        totalSalary += employees[employeeId].salary;\r\n        employees[employeeId].lastPayday = now;\r\n    }\r\n    \r\n    function addFund() payable returns(uint){\r\n        return this.balance;\r\n    }\r\n    \r\n    function calculateRunway() returns (uint){\r\n        \r\n        return this.balance / totalSalary;\r\n    }\r\n    \r\n    function hasEnoughFund() returns (bool){\r\n        return calculateRunway() > 0;\r\n    }\r\n    \r\n    function getPaid(){\r\n        var employee = employees[msg.sender];\r\n        assert(employee.id != 0x0);\r\n        \r\n        uint nextPayday = employee.lastPayday + payDuration;\r\n        assert(nextPayday < now);\r\n        \r\n        employees[msg.sender].lastPayday = nextPayday;\r\n        employee.id.transfer(employee.salary);\r\n    }\r\n}",
  "sourcePath": "C:\\Users\\yangx\\Downloads\\blockchain\\react\\contracts\\PayrollFinal.sol",
  "compiler": {
    "name": "solc",
    "version": "0.4.24+commit.e67f0147.Emscripten.clang"
  },
  "schemaVersion": "2.0.1",
  "updatedAt": "2018-10-30T22:59:03.766Z"
}